:020000040800F2
:1040000000000120C5420008CB420008CF42000852
:1040100041430008454300088D43000800000000AC
:10402000000000000000000000000000D543000870
:10403000D943000800000000DD430008E143000808
:10404000F1430008F1430008F1430008F143000880
:10405000F1430008F14300083D510008F143000816
:10406000F1430008F1430008F1430008F143000860
:10407000F1430008F1430008F1430008F143000850
:10408000F1430008F1430008F1430008000000007C
:10409000000000000000000000000000F1430008E4
:1040A000F1430008F1430008F1430008F143000820
:1040B000F1430008F1430008F1430008F143000810
:1040C000F1430008F1430008F1430008F143000800
:1040D000F1430008F1430008F1430008000000002C
:1040E000F1430008F1430008F1430008000000001C
:1040F000000000000000000000000000F143000884
:1041000000000000F1430008F1430008F1430008FB
:10411000000000000000000000000000000000009F
:10412000F1430008F1430008F1430008F14300089F
:10413000F143000800000000000000000000000043
:10414000000000000000000000000000F143000833
:10415000F1430008F1430008F1430008F14300086F
:10416000F1430008F14300080000000000000000D7
:10417000000000000000000000000000000000003F
:1041800000000000F14300080000000000000000F3
:10419000F143000800B583B000F004FF384B394A02
:1041A0001360394A1360394900E02146384B99427F
:1041B0000BD20A684B6801F10C0488689842F4D964
:1041C0001168196004330432F8E72E4B1A68314B3A
:1041D0009A4200D0FEE72C4B1A682F4B9A42F9D135
:1041E000274B2E4A13602E4A13602E4B05E0002009
:1041F000106004329342FAD80B462B4A934204D201
:10420000194651F8082B5B68F4E7244B1B6813B977
:10421000234B1B6803B1FEE701F090FA694601A841
:1042200000F0E2FD214C224BE41AA4100025AC4220
:1042300014DC204C204BE41AA4100025AC4213DC03
:104240000099019801F098FA05461C4C1C4BE41AA1
:10425000A410002C0EDC284600F0A2FD144B53F8ED
:10426000253098470135E2E7134B53F8253098473E
:104270000135E3E7013C124B53F824309847E8E757
:10428000BABADECA0000002088000020F44300080B
:104290000C44000878563412325476988C00002072
:1042A000680100200C4400081C4400081C4400085D
:1042B0001C4400081C4400081C4400081C4400085E
:1042C0001C44000808B5FFF765FF00BEFEE71EF0BE
:1042D000040F0CBFEFF30880EFF309807146414AE9
:1042E00010472DE9F04182B004468846124B5E6BC0
:1042F0009F6B9D6A1B6B13F0020F03D00E4BDB6AA2
:10430000002B0CDB0D4800F0ABFDCDF800803B46E8
:1043100032462946204600F0BBFD00BEFEE74BF6C4
:10432000AB6100F02FFE0028ECD0034B4FF00042B1
:10433000DA6202B0BDE8F08100ED00E048660008F6
:1043400000BEFEE71EF0040F0CBFEFF30880EFF392
:1043500009807146244A10472DE9F04182B0044695
:104360008846084B5E6B9F6B9D6A074800F078FD9E
:10437000CDF800803B4632462946204600F088FDB5
:1043800000BEFEE700ED00E0586600081EF0040FD6
:104390000CBFEFF30880EFF309807146134A104712
:1043A0002DE9F04182B004468846084B5E6B9F6B56
:1043B0009D6A074800F054FDCDF800803B46324628
:1043C0002946204600F064FD00BEFEE700ED00E057
:1043D0006466000800BEFEE700BEFEE700BEFEE722
:1043E00070470000E342000859430008A143000859
:0443F00000BEFEE726
:1043F400F0660008000000208C000020F066000831
:1044040000000010000000108C0000206C0100204F
:08441400000000100000001080
:1044200010B504460E4B18784FF47A73B3FBF0F3D3
:104430000C4A1068B0FBF3F000F09CF868B90F2C40
:1044400001D901200AE0002221464FF0FF3000F0A0
:104450004BF8054B1C60002000E0012010BD00BFA0
:1044600004000020140000200800002008B50B4BB9
:104470001A6842F400721A601A6842F480621A6084
:104480001A6842F480721A60032000F00FF80F20BF
:10449000FFF7C6FF01F020FA002008BD003C0240F3
:1044A000014B1868704700BF6001002010B504463A
:1044B000C31E042B0FD80A4AD36823F4E0631B04FD
:1044C0001B0C240204F4E064234343F0BF6343F471
:1044D0000033D36010BD9221024801F037F9EAE7BA
:1044E00000ED00E0C864000870B505460C461646AD
:1044F0000F2A25D80F2C28D81B4BDB68C3F30223C7
:10450000C3F10702042A28BF0422191D062921D954
:10451000033B4FF0FF3101FA02F224EA02049C400F
:1045200001FA03F326EA03063443002D14DB2401C9
:10453000E4B205F1604505F5614585F8004370BDBD
:10454000AA210A4801F002F9D4E7AB21074801F09B
:10455000FDF8D1E70023DCE705F00F052401E4B204
:10456000034B5C55EBE700BF00ED00E0C8640008BA
:1045700014ED00E00138B0F1807F0AD2064B58609C
:10458000064AF02182F823100020986007221A6062
:1045900070470120704700BF10E000E000ED00E030
:1045A00010B50446042800D038B9042C0BD0094AB1
:1045B000136823F00403136010BD40F2C9110648CC
:1045C00001F0C4F8F1E7034A136843F004031360F1
:1045D000F2E700BF10E000E0C8640008002800F027
:1045E000648270B582B0044603680F2B39D8236803
:1045F00013F0010F4DD063682BB1B3F5803F02D0AB
:10460000B3F5A02F32D1A54B9B6803F00C03042B0C
:1046100036D0A24B9B6803F00C03082B2BD06368A9
:10462000B3F5803F5FD0B3F5A02F62D09B4B1A68E3
:1046300022F480321A601A6822F480221A606368B9
:10464000002B60D0FFF72CFF0546944B1B6813F43A
:10465000003F1ED1FFF724FF401B6428F5D903203B
:1046600028E2E8218E4801F071F8C0E7ED218C487E
:1046700001F06CF8C7E7894B5B6813F4800FCED06C
:10468000864B1B6813F4003F03D06368002B00F0D7
:104690000E82236813F0020F67D0E368012B41D824
:1046A00023691F2B44D87D4B9B6813F00C0F4AD015
:1046B0007A4B9B6803F00C03082B3FD0E368002B78
:1046C00077D0784B01221A60FFF7EAFE0546734B5C
:1046D0001B6813F0020F63D1FFF7E2FE401B0228B4
:1046E000F5D90320E6E16D4A136843F48033136083
:1046F000A5E76A4B1A6842F480221A601A6842F4ED
:1047000080321A609BE7FFF7CBFE0546634B1B68C0
:1047100013F4003FBDD0FFF7C3FE401B6428F5D95A
:104720000320C7E140F21F115D4801F00FF8B7E721
:104730004FF490715A4801F009F8B4E7574B5B68A1
:1047400013F4800FBAD1554B1B6813F0020F04D03D
:10475000E368012B01D00120ACE1504A136823F03B
:10476000F803216943EAC1031360236813F0080FBB
:1047700049D06369012B2ED8636993B34A4B012258
:104780001A60FFF78DFE0546444B5B6F13F0020F76
:1047900039D1FFF785FE401B0228F5D9032089E1B6
:1047A0003E4A136823F0F803216943EAC10313600A
:1047B000DBE73C4B00221A60FFF772FE0546374BE1
:1047C0001B6813F0020FD0D0FFF76AFE401B0228CF
:1047D000F5D903206EE14FF4B071314800F0B6FF17
:1047E000CAE7314B00221A60FFF75AFE05462B4BF1
:1047F0005B6F13F0020F06D0FFF752FE401B02283A
:10480000F5D9032056E1236813F0040F00F08780E8
:10481000A368012B01D9052B38D1204B1B6C13F059
:10482000805F39D1002301931C4B1A6C42F08052F7
:104830001A641B6C03F080530193019B01251B4BF1
:104840001B6813F4807F33D0A368012B44D0052B61
:1048500048D0124B1A6F22F001021A671A6F22F029
:1048600004021A67A368002B46D0FFF719FE06461C
:104870000A4B1B6F13F0020F4FD1FFF711FE801B85
:1048800041F288339842F3D9032013E14FF4C67103
:10489000034800F05BFFC0E70025D0E70038024086
:1048A000FC64000800004742800E47420070004050
:1048B000834A136843F480731360FFF7F1FD0646E3
:1048C0007F4B1B6813F4807FBED1FFF7E9FD801B8F
:1048D0000228F5D90320EDE07A4A136F43F0010373
:1048E0001367BFE7774B1A6F42F004021A671A6F1B
:1048F00042F001021A67B5E7FFF7D2FD0646714B99
:104900001B6F13F0020F08D0FFF7CAFD801B41F2A6
:1049100088339842F3D90320CCE0002D3BD1A36922
:10492000022B3ED8A369002B00F0C380654A926831
:1049300002F00C02082A00F09080022B79D1E36982
:1049400013B1B3F5800F32D1236A3F2B35D8636A98
:10495000323BB3F5BF7F36D8A36A022B05D0042BB8
:1049600003D0062B01D0082B33D1E36A023B0D2B79
:1049700035D8554B00221A60FFF792FD0546514B82
:104980001B6813F0007F30D0FFF78AFD401B022820
:10499000F5D903208EE04B4A136C23F08053136447
:1049A000BDE740F2CF11494800F0D0FEBAE74FF41E
:1049B000EC71464800F0CAFEC6E740F2D911434800
:1049C00000F0C4FEC3E74FF4ED71404800F0BEFEB6
:1049D000C2E740F2DB113D4800F0B8FEC5E74FF4F6
:1049E000EE713A4800F0B2FEC3E7E369226A13436E
:1049F000626A43EA8213A26A5208013A43EA024316
:104A0000E26A43EA02632F4A53602F4B01221A6085
:104A1000FFF746FD04462B4B1B6813F0007F06D1C1
:104A2000FFF73EFD001B0228F5D9032042E00020DD
:104A300040E0254B00221A60FFF732FD0446214B6F
:104A40001B6813F0007F06D0FFF72AFD001B022829
:104A5000F5D903202EE000202CE0012B2CD0194B9F
:104A60005B6803F48001E269914201D0012021E0FA
:104A700003F03F02216A8A4201D001201AE0616AF4
:104A800047F6C0721A408A4201D0012012E003F4B6
:104A90004032A16A8A4201D001200BE003F070632A
:104AA000E26A93420AD0012004E00120704701200D
:104AB00000E0002002B070BD0120FBE70020F9E714
:104AC000007000400038024060004742FC6400086B
:104AD000264B9B6803F00C03042B44D0082B01D019
:104AE000234870472DE9F04B204B5A6802F03F02F3
:104AF0005B6813F4800F13D01C4B5968C1F3881105
:104B000000231C48A1FB000100F0E8FE174B5B6886
:104B1000C3F3014301335B00B0FBF3F0BDE8F08B5E
:104B2000124B5B68C3F388131E4600275C01002507
:104B3000E41A65EB0705A90141EA9461A001001B95
:104B400061EB0501CB0043EA5073C400A01943EBAD
:104B500007018B0243EA9053840220461946002342
:104B600000F0BCFED2E70348704700BF00380240A7
:104B70000024F40040787D01002800F0FA8070B530
:104B800004460D460368013B0E2B11D8072D15D89E
:104B90007A4B1B6803F00F03AB4215D2EBB2774A96
:104BA0001370136803F00F03AB420DD0012070BDEA
:104BB00040F25121724800F0C9FDE7E740F252216E
:104BC0006F4800F0C3FDE3E7236813F0020F29D01C
:104BD00013F0040F04D06B4A936843F4E0539360DE
:104BE000236813F0080F04D0664A936843F46043C7
:104BF0009360A3687BB1802B0DD0902B0BD0A02BA2
:104C000009D0B02B07D0C02B05D0D02B03D0E02B80
:104C100001D0F02B33D15B4A936823F0F003A168F5
:104C20000B439360236813F0010F42D06368032B9A
:104C30002BD86368012B2ED09A1E012A32D9514AF3
:104C4000126812F0020F00F096804E498A6822F036
:104C5000030213438B60FFF723FC0646494B9B6816
:104C600003F00C036268B3EB820F22D0FFF718FC4D
:104C7000801B41F288339842F0D9032097E740F235
:104C800075213F4800F062FDC5E74FF41F713C48B5
:104C900000F05CFDCDE73B4A126812F4003FD4D12E
:104CA000012084E7374A126812F0007FCDD101203D
:104CB0007DE7324B1B6803F00F03AB4209D9EAB220
:104CC0002E4B1A701B6803F00F03AB4201D001207A
:104CD0006DE7236813F0040F14D0E3685BB1B3F5FC
:104CE000805F08D0B3F5A05F05D0B3F5C05F02D0F8
:104CF000B3F5E05F31D1234A936823F4E053E168D0
:104D00000B439360236813F0080F15D023695BB140
:104D1000B3F5805F08D0B3F5A05F05D0B3F5C05FF1
:104D200002D0B3F5E05F1ED1164A936823F46043C6
:104D3000216943EAC1039360FFF7CAFE114B9B68E8
:104D4000C3F30313104AD35CD840104B1860104BC8
:104D50001868FFF765FB002029E740F2BA210848F0
:104D600000F0F4FCC7E740F2C121054800F0EEFC7A
:104D7000DAE701207047012019E700BF003C02403C
:104D8000FC6400080038024074660008140000202B
:104D900008000020014B1868704700BF1400002075
:104DA000FEE7000008B503460C4A12685AB10B4AE8
:104DB0001068033323F003030344094A934206D8DF
:104DC000064A136008BD054A06491160EFE700F086
:104DD00005FF0C2303604FF0FF30F3E79000002045
:104DE00000FC00206C01002001230360014B0B60DC
:104DF000704700BF0C0000202DE9F04385B0044649
:104E00000F4643560BB10E461EE0042528462146A8
:104E1000ABBE0446384605B0BDE8F08314F9011B6B
:104E200004AA1A4402F8101C0133AB42F6D304AAB8
:104E30001344002203F8102C4FF00408E9464046C2
:104E40004946ABBE8046761B002EE3D03546102E79
:104E500028BF10250023E8E708B5FFF7CDFF08BD00
:104E60000FB400B583B004AB53F8042B0193802139
:104E7000064800F0E5FE002803DD01460348FFF781
:104E8000EBFF03B05DF804EB04B07047980000201E
:104E9000F8B504460D4617461E462748FFF7E0FFC3
:104EA00021682648FFF7DCFF61682548FFF7D8FF37
:104EB000A1682448FFF7D4FFE1682348FFF7D0FF3B
:104EC00021692248FFF7CCFF61692148FFF7C8FF3D
:104ED000A1692048FFF7C4FFE1691F48FFF7C0FF41
:104EE0001E48FFF7BDFF29461D48FFF7B9FF1D4CBF
:104EF000E16A1D48FFF7B4FF216B1C48FFF7B0FFC4
:104F0000E16B1B48FFF7ACFF15F0800F0AD115F4D9
:104F1000004F0CD11748FFF7A3FF06991648FFF77B
:104F20009FFFF8BD39461548FFF79AFFEFE7314676
:104F30001348FFF795FFEDE72C6500083C65000876
:104F40004C6500085C6500086C6500087C6500081D
:104F50008C6500089C650008AC650008BC6500080D
:104F6000C865000800ED00E0D8650008E8650008A5
:104F7000F865000828660008306600080866000822
:104F80001866000883691A888A4201D00020704799
:104F90000268033A012A03D8023383610120704773
:104FA0000020704708B500F009F8024A024B9A60E9
:104FB00008BD00BF0040000800ED00E0024B4FF0CC
:104FC00000629A60704700BF00ED00E0224B9B68D2
:104FD00003F00C03042B14D0082B16D01BB11F4B6D
:104FE0001F4A1A6002E01D4B1D4A1A601A4B9B684B
:104FF000C3F303131B4AD15C184A1368CB401360F8
:105000007047164B184A1A60F0E7134B5A685B68F2
:1050100003F03F0312F4800F13D0134AB2FBF3F2F4
:105020000D4B5B68C3F3881303FB02F30A4A526813
:10503000C2F3014201325200B3FBF2F3074A13609C
:10504000D4E7074AB2FBF3F2034B5B68C3F3881360
:1050500003FB02F3EAE700BF00380240140000201F
:105060000024F4007466000840787D0110B5044601
:1050700001220178407800F071F80122A178E078EF
:1050800000F06CF810BD10B504460022017840789D
:1050900000F050F90122A178E07800F04BF910BD42
:1050A00010B5044600220178407800F043F9002250
:1050B000A178E07800F03EF910BD00000F2806D876
:1050C00003490B68012202FA00F018430860704798
:1050D000003C014001290FD011B1022918D07047BE
:1050E000114BD968012202FA00F021EA0001D960CF
:1050F0009A681043986070470B4B9968012202FA36
:1051000000F021EA00019960DA681043D860704726
:10511000054A9168012303FA00F001439160D368C6
:105120001843D060704700BF003C01400F2802D8F0
:10513000014B43F8201070471801002008B5054BBB
:105140001B6803B19847044A536943F00103536154
:1051500008BD00BF18010020003C014010B4012828
:1051600014D018B1022820D002200DE0164B186888
:10517000490003248C4020EA04001860186802FAF1
:1051800001F101431960002010BC70470F4B1868F3
:10519000490003248C4020EA04001860186802FAD1
:1051A00001F1014319600020EEE7094B186849003E
:1051B00003248C4020EA04001860186802FA01F108
:1051C000014319600020DFE70000024000040240B4
:1051D0000008024010B4012814D018B1022820D0D1
:1051E00002200DE0164BD868490003248C4020EAC9
:1051F0000400D860D86802FA01F10143D9600020A8
:1052000010BC70470F4BD868490003248C4020EA3B
:105210000400D860D86802FA01F10143D960002087
:10522000EEE7094BD868490003248C4020EA0400CB
:10523000D860D86802FA01F10143D9600020DFE7A5
:1052400000000240000402400008024030B401287F
:1052500027D020B1022846D0022030BC7047072951
:105260000ED8314C236A89000F20884023EA0003BE
:105270002362236A02FA01F1194321620020ECE75C
:10528000294C636AA1F1080080000F21814023EAC4
:1052900001036362636A02FA00F01843606200204F
:1052A000DBE707290ED8214C236A8D000F21A94086
:1052B00023EA01032362236A02FA05F119432162FA
:1052C0000020CAE7194C606AA1F108039B000F2176
:1052D000994020EA01016162616A02FA03F30B431B
:1052E00063620020B9E707290FD9114C636A0839B6
:1052F00089000F20884023EA00036362636A02FA90
:1053000001F1194361620020A7E7094C236A890073
:105310000F20884023EA00032362236A02FA01F186
:1053200019432162002098E7000002400004024077
:1053300000080240012819D018B102282BD0022001
:1053400070474AB1012A3BD12048436902FA01F172
:1053500019434161002070471C484369012202FA49
:1053600001F123EA01014161002070474AB1012A9D
:1053700028D11748436902FA01F11943416100201D
:10538000704713484369012202FA01F123EA01013F
:105390004161002070474AB1012A15D10D48436987
:1053A00002FA01F11943416100207047094843693D
:1053B000012202FA01F123EA010141610020704754
:1053C0000520704705207047052070470000024007
:1053D000000402400008024010B504460022417853
:1053E0000078FFF7BBFE012261782078FFF7F2FE1C
:1053F00010BD0000024A1168024B0B431360704756
:105400000CED00E00002FA05420900F01F00012344
:1054100003FA00F0014B43F82200704700E100E07E
:105420000F4B1A6842F001021A609A6822F00102DA
:105430009A609A6822F002029A60094B1B6813F086
:10544000020FFAD0064B9A6842F080029A609A687E
:1054500042F480529A609A6842F400429A6070471F
:1054600000380240032822D8DFE800F0020A121AAE
:105470000F48036B012202FA01F1194301637047DF
:105480000B48436B012202FA01F119434163704753
:105490000748036C012202FA01F1194301647047C5
:1054A0000348436C012202FA01F119434164704739
:1054B00000380240064B1A6822F004021A601A688B
:1054C00042F002021A601A6842F002021A60704743
:1054D00010E000E0094B5A6802F07F425A605A68B7
:1054E0001043586000229A60044B1B6813F4803FFD
:1054F000FAD0024B00229A60704700BF10E000E033
:105500000138032825D8DFE800F002375A7D4FF034
:1055100080439A6922F001029A619A6922F002029C
:105520009A611A6A22F002021A629A6922F0100243
:105530009A619A6942F020029A619A6942F04002A7
:105540009A619A6942F008029A611A6A42F001026D
:105550001A624FF080431A6822F080021A601A68BB
:1055600022F010021A601A6822F020021A601A68EB
:1055700022F040021A6070474FF080439A6922F48B
:1055800080729A619A6922F400729A611A6A22F012
:1055900020021A629A6922F480529A619A6942F44E
:1055A00000529A619A6942F480429A619A6942F47F
:1055B00000629A611A6A42F010021A62C9E74FF05B
:1055C0008043DA6922F00102DA61DA6922F002022C
:1055D000DA611A6A22F400721A62DA6922F01002A1
:1055E000DA61DA6942F02002DA61DA6942F04002F7
:1055F000DA61DA6942F00802DA611A6A42F480720A
:105600001A62A6E74FF08043DA6922F48072DA6109
:10561000DA6922F40072DA611A6A22F020021A6250
:10562000DA6922F48052DA61DA6942F40052DA610E
:10563000DA6942F48042DA61DA6942F40062DA61DE
:105640001A6A42F480521A6283E74FF080430022C4
:105650009A629A6A1043986270474FF08043D8620A
:1056600070470138032812D8DFE800F002060A0E5E
:105670004FF08043596370474FF080439963704700
:105680004FF08043D96370474FF0804319647047EF
:105690004FF08042136843F001031360704700002D
:1056A00070B594B000240194214B1A6C42F08052E2
:1056B0001A641B6C03F080530193019B02941D4BF1
:1056C0001A6842F440421A601B6803F44043029394
:1056D000029B012308934FF4803309934FF4800316
:1056E0000F93192310934FF4A87311930426129665
:1056F0000723139302250E9508A8FEF76FFF0F23CB
:105700000393049505944FF4805306930794294618
:1057100003A8FFF731FAFFF73DFB074BA3FB00306F
:105720008009FEF727FF3046FEF73AFF14B070BD40
:105730000038024000700040D34D621008B5FEF7FB
:1057400095FEFFF7ADFFFFF741FC08BD08B50A461F
:1057500001460248FFF784FBFEE700BF84660008AD
:1057600008B50348FFF79CFC0248FFF799FCFEE7E9
:105770001C0000201800002070B582B0FFF750FE1A
:1057800000210846FFF76EFE012206210020FFF7E8
:10579000E5FC012206210020FFF7CCFD01210020BD
:1057A000FFF760FE00210220FFF75CFEFFF782FE9C
:1057B00002220A210120FFF7D1FC01220A21104612
:1057C000FFF744FD0320FFF79BFE2A20FFF73DFF74
:1057D000FF20FFF742FFFFF75BFF64210320FFF785
:1057E00040FF364D2846FFF741FC354C2046FFF779
:1057F0003DFC2846FFF747FC2046FFF744FC3148B4
:10580000FFF768FE00248DF804408DF8054001A8DC
:10581000FFF7E2FDFFF7EEFD0620FFF7F5FD0121A2
:105820002046FFF757FC28492046FFF77FFC20461B
:10583000FFF744FC05E02148FFF732FC2048FFF762
:105840002FFC224B1B78002BF5D0022BF9D1002422
:1058500014E01A4E3046FFF723FC194D2846FFF797
:1058600012FC1B48FFF736FE3046FFF70CFC2846BB
:10587000FFF709FC1748FFF72DFE0134012CE8DD86
:10588000002414E00E4D2846FFF70AFC0B4E30466C
:10589000FFF7F9FB0E48FFF71DFE3046FFF7F3FB5D
:1058A0002846FFF7F0FB0B48FFF714FE0134012CEC
:1058B000E8DD064B00221A70C3E700BF1C00002081
:1058C0001800002080841E0061570008200000207E
:1058D00060AE0A00A08601007047000053B94AB9C3
:1058E000002908BF00281CBF4FF0FF314FF0FF30E8
:1058F00000F072B9ADF1080C6DE904CE00F006F8C5
:10590000DDF804E0DDE9022304B070472DE9F0473B
:10591000089E04468846002B4BD18A42154667D91B
:10592000B2FA82F24AB1C2F1200701FA02F320FA78
:1059300007F7954047EA030894404FEA154E230CB9
:10594000B8FBFEF71FFA85FC0EFB178843EA0843F5
:1059500007FB0CF1994209D9EB1807F1FF3080F0F1
:105960001B81994240F21881023F2B445B1AA4B27A
:10597000B3FBFEF00EFB103344EA034400FB0CFCC7
:10598000A44509D92C1900F1FF3380F00781A44503
:1059900040F2048102382C4440EA0740A4EB0C0496
:1059A00000271EB1D4400023C6E900433946BDE8B4
:1059B000F0878B4209D9002E00F0EB800027C6E962
:1059C000000138463946BDE8F087B3FA83F7002F67
:1059D00047D18B4202D3824200F2FA80841A61EBF3
:1059E000030301209846002EE0D0C6E90048DDE719
:1059F00002B9FFDEB2FA82F2002A40F08F80491B22
:105A00004FEA154E1FFA85F80127B1FBFEFC230C67
:105A10000EFB1C1143EA014308FB0CF1994207D924
:105A2000EB180CF1FF3002D2994200F2CD8084468F
:105A3000591AA3B2B1FBFEF00EFB101443EA044462
:105A400008FB00F8A04507D92C1900F1FF3302D25A
:105A5000A04500F2B6801846A4EB080440EA0C40CA
:105A60009FE7C7F1200CBB4022FA0CFE4EEA030E62
:105A700001FA07F420FA0CF521FA0CF34FEA1E485C
:105A80002543B3FBF8F92C0C08FB19331FFA8EFAE7
:105A900044EA034309FB0AF49C4202FA07F200FAC3
:105AA00007F10BD91EEB030309F1FF3080F087806B
:105AB0009C4240F28480A9F1020973441B1BADB2E1
:105AC000B3FBF8F008FB103345EA034400FB0AFA85
:105AD000A24508D91EEB040400F1FF336BD2A245A6
:105AE00069D90238744440EA0940A0FB0289A4EB5A
:105AF0000A044C45C2464B4654D351D0002E69D0BF
:105B0000B1EB0A0564EB030404FA0CFCFD40FC4015
:105B10004CEA0505C6E90054002747E7C2F1200317
:105B200020FA03F7954001FA02F021FA03F34FEA55
:105B3000154E3843010CB3FBFEF71FFA85F80EFB38
:105B4000173341EA034107FB08F38B4204FA02F4DE
:105B500007D9691807F1FF3C2FD28B422DD9023F9C
:105B60002944CB1A81B2B3FBFEF00EFB103341EA9D
:105B7000034100FB08F38B4207D9691800F1FF3C91
:105B800017D28B4215D902382944C91A40EA07476F
:105B90003BE73746304609E70746E7E61846FBE6A7
:105BA0004145ABD2B8EB020A69EB0E02013813464D
:105BB000A4E76046E9E7184695E76746D1E78146DE
:105BC0007CE702382C4447E7ACF1020C2B442FE76A
:105BD000384608E73746E9E6704700BF014B1868CA
:105BE000704700BF2400002030B5141E05469BB04E
:105BF000184605DA8B232B604FF0FF301BB030BD09
:105C00004FF40273ADF80C3014BF04F1FF33234698
:105C1000029305934FF6FF7300910491ADF80E3097
:105C200002461E9B6946284600F072F8431CBCBF22
:105C30008B232B60002CE1D0009B00221A70DDE743
:105C400007B5009313460A46014603480068FFF76C
:105C5000CBFF03B05DF804FB240000202DE9F047E2
:105C60008E689E4282460C469046994637D88A896D
:105C700012F4906F31D0256809696F1A65690223A3
:105C800005EB450595FBF3F509F101033B449D4206
:105C900038BF1D46530530D5294600F07BFB06462C
:105CA00050B90C23CAF80030A38943F04003A38104
:105CB0004FF0FF30BDE8F0873A46216900F0F8FA6E
:105CC000A38923F4906343F08003A3812661656177
:105CD0003E44ED1B2660A5604E464E4500D94E461B
:105CE00032464146206800F0EEFAA3689B1BA36091
:105CF00023681E4426600020DCE72A4600F0A4FB4F
:105D000006460028E2D12169504600F0F5FAC8E7BE
:105D10002DE9F04F9DB0804603938B891D060C46FC
:105D200016460FD50B696BB9402100F033FB20609C
:105D3000206128B90C23C8F800304FF0FF30C7E0CD
:105D4000402363610023099320238DF829303023F9
:105D50008DF82A304FF0010B37463D4615F8013BD0
:105D60000BB1252B3ED1B7EB060A0BD0534632467A
:105D700021464046FFF772FF013000F0A480099BE6
:105D8000534409933B78002B00F09D8000234FF093
:105D9000FF32CDE90523049307938DF853301A930E
:105DA0002F46052217F8011B4F4800F031FA049BDB
:105DB000D0B9D90644BF20228DF853201A0744BF1A
:105DC0002B228DF853202A782A2A15D0079A2F469D
:105DD00000200A25394611F8013B303B092B4DD9EB
:105DE000B8B10FE02F46B8E73F4A801A0BFA00F02F
:105DF000184304903D46D3E7039A111D126803919E
:105E0000002A01DB079204E0524243F002030792AA
:105E100004933B782E2B0CD17B782A2B33D1039B18
:105E20001A1D1B680392002BB8BF4FF0FF330237D7
:105E300005932E4D39780322284600F0E9F938B150
:105E40004023401B03FA00F0049B034301370493F3
:105E5000397827488DF8281006227E1C00F0D8F9E2
:105E6000002838D0234B13BB039B073323F00703D1
:105E700008330393099B4B4409936DE705FB0232FA
:105E800001200F46A6E700230137059319460A258E
:105E9000384610F8012B303A092A03D9002BC8D014
:105EA0000591C6E705FB012101230746F0E703AB97
:105EB00000932246104B04A94046AFF30080B0F196
:105EC000FF3F8146D6D1A3895B063FF536AF0998DF
:105ED0001DB0BDE8F08F03AB00932246064B04A92A
:105EE000404600F081F8EAE7B4660008BA660008A8
:105EF000BE660008000000005D5C00082DE9F04768
:105F000091461F468A680B69DDF820809342B8BF2E
:105F10001346C9F8003091F8432006460C4612B1EA
:105F20000133C9F800302368990642BFD9F8003020
:105F30000233C9F80030256815F0060507D104F1D1
:105F4000190AE368D9F800209B1AAB4228DC94F8C0
:105F500043302268003318BF012392062DD404F188
:105F6000430239463046C047013020D02368E568F7
:105F7000D9F8002003F00603042B08BFAD1AA3686C
:105F800022690CBF25EAE57500259342C4BF9B1A20
:105F9000ED184FF000091A344D451AD1002008E0E1
:105FA0000123524639463046C047013003D14FF0F5
:105FB000FF30BDE8F0870135C3E7E1185A1C3020F7
:105FC00081F84300224494F8451082F843100233CC
:105FD000C5E70123224639463046C0470130E6D0A6
:105FE00009F10109D8E700002DE9F04301F1430C64
:105FF0000C46097E85B06E291746064698460C9ACF
:1060000000F0B38022D8632936D00AD8002900F0E6
:10601000B980582900F0838004F1420584F84210C9
:1060200032E0642901D06929F6D120681368050699
:1060300003F104012AD51B681160002B03DA2D221D
:106040005B4284F843206F480A2239E0732900F04C
:106050009D8008D86F2920D07029DDD1236843F0B6
:106060002003236003E0752917D07829D4D1782341
:1060700084F84530644855E01368191D1B681160A9
:1060800004F1420584F8423001238CE01B68116062
:1060900010F0400F18BF1BB2CFE713682568181D1A
:1060A0001060280601D51B6802E06806FBD51B8836
:1060B00054486F2914BF0A220822002184F8431093
:1060C0006568A560002DC0F29580216821F004016B
:1060D0002160002B3DD1002D40F08E806546082ABE
:1060E0000BD12368DB0708D5236962689A42DEBFBB
:1060F000302305F8013C05F1FF35ACEB05032361C6
:10610000CDF800803B4603AA21463046FFF7F6FE55
:1061100001304DD14FF0FF3005B0BDE8F083394874
:1061200084F84510136821681D1D1B6815600A0658
:106130000BD5CA0744BF41F0200121601BB922687A
:1061400022F0200222601022B7E74D0648BF9BB222
:10615000EFE76546B3FBF2F102FB1133C35C05F8D0
:10616000013D0B460029F5D1B9E71368256861693F
:10617000181D106028061B6801D5196002E06A0628
:10618000FBD51980002323616546B9E71368191D03
:1061900011601D6862680021284600F039F808B1D6
:1061A000401B606063682361002384F84330A7E7E5
:1061B00023692A4639463046C0470130AAD02368B1
:1061C0009B0713D4E068039B9842B8BF1846A3E727
:1061D00001234A4639463046C04701309AD001353E
:1061E000E368039A9B1AAB42F2DCEBE7002504F16B
:1061F0001909F5E7002BACD1037884F8423004F19B
:1062000042056CE7C5660008D6660008000000007D
:1062100001F0FF01102A2BDB10F0070F08D010F857
:10622000013B013A8B422DD010F0070F42B3F6D15B
:10623000F0B441EA012141EA014122F007047FF074
:1062400000070023F0E80256083C85EA010586EACB
:10625000010685FA47F5A3FA87F586FA47F6A5FA07
:1062600087F68EB9EED1F0BC01F0FF0102F0070213
:1062700032B110F8013B013A83EA010313B1F8D1BE
:106280000020704701387047002D06BF354603389F
:10629000073815F0010F07D1013015F4807F02BFD8
:1062A000013015F4C03F0130F0BC0138704700BF29
:1062B00010B5431E0A44914200D110BD11F8014BA4
:1062C00003F8014FF7E7884210B501EB020307D846
:1062D000421E99420AD011F8014B02F8014FF8E72B
:1062E0008342F5D98118D21AD34200D110BD13F8D8
:1062F000014D01F8014DF7E738B50546002945D0B5
:1063000051F8043C0C1F002BB8BFE41800F0D2F881
:106310001F4A1368104633B9636014602846BDE80D
:10632000384000F0C8B8A3420CD9216862189342E3
:1063300004BF1A685B68636004BF5218226004607F
:10634000ECE713465A680AB1A242FAD919685818FC
:10635000A0420BD120680144581882421960DDD157
:10636000106852685A6001441960D7E702D90C23BB
:106370002B60D3E7206821188A4204BF1168526855
:10638000626004BF091821605C60C7E738BD00BFC8
:106390005801002070B5CD1C25F0030508350C2DE3
:1063A00038BF0C25002D064601DBA94203D90C237A
:1063B0003360002070BD00F07DF8214A146821464A
:1063C00091B9204C23681BB9304600F063F8206077
:1063D0002946304600F05EF8431C24D10C2333607C
:1063E000304600F068F8E4E70B685B1B18D40B2B11
:1063F0000FD90B60CD50CC18304600F05CF804F19A
:106400000B00231D20F00700C31AD3D05A42E250DC
:10641000D0E78C424B6816BF636013600C46EBE715
:106420000C464968CCE7C41C24F00304A04205D004
:10643000211A304600F02EF80130CFD02560DBE77E
:10644000580100205C010020F8B5074614460E46AE
:1064500021B91146BDE8F840FFF79CBF22B9FFF70C
:106460004BFF25462846F8BD00F026F8A0420FD283
:1064700021463846FFF78EFF05460028F2D0314608
:106480002246FFF715FF31463846FFF735FFE9E7AB
:106490003546E7E738B5064C002305460846236035
:1064A000FEF780FC431C02D1236803B12B6038BD8A
:1064B000640100207047704751F8043C181F002BFE
:1064C000BCBF0B58C01870472E2E2F73797374659C
:1064D0006D2F7372632F73746D333266342D686160
:1064E0006C2F73746D3332663478785F68616C5FDB
:1064F000636F727465782E63000000002E2E2F7378
:10650000797374656D2F7372632F73746D33326694
:10651000342D68616C2F73746D3332663478785F14
:1065200068616C5F7263632E630000005374616383
:106530006B206672616D653A0A00000020523020BF
:106540003D2020253038580A00000000205231201C
:106550003D2020253038580A00000000205232200B
:106560003D2020253038580A0000000020523320FA
:106570003D2020253038580A0000000020523132DA
:10658000203D20253038580A00000000204C5220C1
:106590003D2020253038580A0000000020504320BC
:1065A0003D2020253038580A00000000205053526A
:1065B000203D20253038580A000000004653522F55
:1065C0004641523A0A0000002043465352203D20E3
:1065D00020253038580A00002048465352203D20DC
:1065E00020253038580A00002044465352203D20D0
:1065F00020253038580A00002041465352203D20C3
:1066000020253038580A0000204D4D464152203D8B
:1066100020253038580A00002042464152203D20B3
:1066200020253038580A00004D6973630A000000C5
:10663000204C522F4558435F52455455524E3D20F1
:10664000253038580A0000005B4861726446617565
:106650006C745D0A000000005B4275734661756CE6
:10666000745D0A005B55736167654661756C745DA6
:106670000A00000000000000000000000102030406
:106680000607080957726F6E6720706172616D6549
:10669000746572732076616C75653A2066696C6505
:1066A000202573206F6E206C696E652025640D0AAD
:1066B00000000000232D302B2000686C4C00656624
:1066C0006745464700303132333435363738394143
:1066D0004243444546003031323334353637383959
:0766E000616263646566005E
:0866E80024F2FF7F0100000015
:1066F0007856341201FFFFFF1000000094000020C4
:10670000000000000024F400030004000100020067
:1067100002FFFFFF28000020000000000000000032
:106720000000000000000000000000000000000069
:106730000000000000000000000000000000000059
:106740000000000000000000000000000000000049
:106750000000000000000000000000000000000039
:106760000000000000000000000000000000000029
:0C67700000000000000000003254769889
:040000050800419519
:00000001FF
